{"abi":[{"type":"constructor","inputs":[{"name":"_configManager","type":"address","internalType":"address"},{"name":"_vault","type":"address","internalType":"address"}],"stateMutability":"nonpayable"},{"type":"function","name":"LEVERAGE","inputs":[],"outputs":[{"name":"","type":"uint256","internalType":"uint256"}],"stateMutability":"view"},{"type":"function","name":"asset","inputs":[],"outputs":[{"name":"","type":"address","internalType":"contract IERC20"}],"stateMutability":"view"},{"type":"function","name":"configManager","inputs":[],"outputs":[{"name":"","type":"address","internalType":"contract ConfigurationManager"}],"stateMutability":"view"},{"type":"function","name":"currentPayout","inputs":[{"name":"id","type":"uint256","internalType":"uint256"}],"outputs":[{"name":"","type":"uint256","internalType":"uint256"}],"stateMutability":"view"},{"type":"function","name":"duration","inputs":[],"outputs":[{"name":"","type":"uint256","internalType":"uint256"}],"stateMutability":"view"},{"type":"function","name":"feeBps","inputs":[],"outputs":[{"name":"","type":"uint256","internalType":"uint256"}],"stateMutability":"view"},{"type":"function","name":"liquidationPrice","inputs":[{"name":"id","type":"uint256","internalType":"uint256"}],"outputs":[{"name":"","type":"uint256","internalType":"uint256"}],"stateMutability":"view"},{"type":"function","name":"maxPayout","inputs":[],"outputs":[{"name":"","type":"uint256","internalType":"uint256"}],"stateMutability":"view"},{"type":"function","name":"maxUtilizationBps","inputs":[],"outputs":[{"name":"","type":"uint256","internalType":"uint256"}],"stateMutability":"view"},{"type":"function","name":"openPosition","inputs":[{"name":"isLong","type":"bool","internalType":"bool"},{"name":"amount","type":"uint256","internalType":"uint256"}],"outputs":[{"name":"id","type":"uint256","internalType":"uint256"}],"stateMutability":"nonpayable"},{"type":"function","name":"oracle","inputs":[],"outputs":[{"name":"","type":"address","internalType":"contract IOracle"}],"stateMutability":"view"},{"type":"function","name":"owner","inputs":[],"outputs":[{"name":"","type":"address","internalType":"address"}],"stateMutability":"view"},{"type":"function","name":"pause","inputs":[],"outputs":[],"stateMutability":"nonpayable"},{"type":"function","name":"paused","inputs":[],"outputs":[{"name":"","type":"bool","internalType":"bool"}],"stateMutability":"view"},{"type":"function","name":"positions","inputs":[{"name":"","type":"uint256","internalType":"uint256"}],"outputs":[{"name":"trader","type":"address","internalType":"address"},{"name":"isLong","type":"bool","internalType":"bool"},{"name":"stake","type":"uint256","internalType":"uint256"},{"name":"entryPrice","type":"uint256","internalType":"uint256"},{"name":"liquidationPrice","type":"uint256","internalType":"uint256"},{"name":"openTime","type":"uint256","internalType":"uint256"},{"name":"settled","type":"bool","internalType":"bool"}],"stateMutability":"view"},{"type":"function","name":"renounceOwnership","inputs":[],"outputs":[],"stateMutability":"nonpayable"},{"type":"function","name":"settle","inputs":[{"name":"id","type":"uint256","internalType":"uint256"}],"outputs":[],"stateMutability":"nonpayable"},{"type":"function","name":"transferOwnership","inputs":[{"name":"newOwner","type":"address","internalType":"address"}],"outputs":[],"stateMutability":"nonpayable"},{"type":"function","name":"unpause","inputs":[],"outputs":[],"stateMutability":"nonpayable"},{"type":"function","name":"vault","inputs":[],"outputs":[{"name":"","type":"address","internalType":"contract LiquidityVault"}],"stateMutability":"view"},{"type":"event","name":"OwnershipTransferred","inputs":[{"name":"previousOwner","type":"address","indexed":true,"internalType":"address"},{"name":"newOwner","type":"address","indexed":true,"internalType":"address"}],"anonymous":false},{"type":"event","name":"Paused","inputs":[{"name":"account","type":"address","indexed":false,"internalType":"address"}],"anonymous":false},{"type":"event","name":"PositionOpened","inputs":[{"name":"id","type":"uint256","indexed":true,"internalType":"uint256"},{"name":"trader","type":"address","indexed":true,"internalType":"address"},{"name":"isLong","type":"bool","indexed":false,"internalType":"bool"},{"name":"stake","type":"uint256","indexed":false,"internalType":"uint256"},{"name":"lockedAmount","type":"uint256","indexed":false,"internalType":"uint256"},{"name":"entryPrice","type":"uint256","indexed":false,"internalType":"uint256"},{"name":"liquidationPrice","type":"uint256","indexed":false,"internalType":"uint256"}],"anonymous":false},{"type":"event","name":"PositionSettled","inputs":[{"name":"id","type":"uint256","indexed":true,"internalType":"uint256"},{"name":"settler","type":"address","indexed":true,"internalType":"address"},{"name":"payout","type":"uint256","indexed":false,"internalType":"uint256"},{"name":"exitPrice","type":"uint256","indexed":false,"internalType":"uint256"}],"anonymous":false},{"type":"event","name":"Unpaused","inputs":[{"name":"account","type":"address","indexed":false,"internalType":"address"}],"anonymous":false},{"type":"error","name":"EnforcedPause","inputs":[]},{"type":"error","name":"ExpectedPause","inputs":[]},{"type":"error","name":"OwnableInvalidOwner","inputs":[{"name":"owner","type":"address","internalType":"address"}]},{"type":"error","name":"OwnableUnauthorizedAccount","inputs":[{"name":"account","type":"address","internalType":"address"}]},{"type":"error","name":"ReentrancyGuardReentrantCall","inputs":[]},{"type":"error","name":"SafeERC20FailedOperation","inputs":[{"name":"token","type":"address","internalType":"address"}]}],"bytecode":{"object":"0x60c034620001c0576200184e90601f38839003908101601f19168201906001600160401b03821183831017620001c45780839160409586948552833981010312620001c0576200005d60206200005583620001d8565b9201620001d8565b903315620001a9575f8054336001600160a01b03198216811783558551946001600160a01b0394909385939192918416907f8be0079c531659141344cd1fd0a4f28419497f9722a3daafe3b4186f6b6457e09080a36001805516928315620001675750169081156200012e5760805260a052516116609081620001ee823960805181818161021701528181610e7f01528181610ff7015281816110d7015281816111b20152611250015260a051818181610111015281816102990152818161090c015281816109c80152610dbf0152f35b825162461bcd60e51b8152602060048201526012602482015271109a5b985c9e4e881e995c9bc81d985d5b1d60721b6044820152606490fd5b62461bcd60e51b815260206004820152601a60248201527f42696e6172793a207a65726f20636f6e6669674d616e616765720000000000006044820152606490fd5b8251631e4fbdf760e01b81525f6004820152602490fd5b5f80fd5b634e487b7160e01b5f52604160045260245ffd5b51906001600160a01b0382168203620001c05756fe6080604081815260049182361015610015575f80fd5b5f92833560e01c9182630fb5a6b414610e5d5750816324a9d85314610e40578163304ea9cb14610e2357816338d52e0f14610d8f5781633f4ba83a14610d21578163578c0b2714610d015781635c975abb14610cdc578163715018a614610c7f5781637dc0d1d014610c515781638456cb5914610bf25781638d01f0ba14610bd65781638da5cb5b14610bae5781638df828001461083b57816399fbab88146107c3578163b7507cfd14610799578163c781a46714610246578163ca0ab07514610202578163e0176de8146101de578163f2fde38b14610144575063fbfa77cf146100fe575f80fd5b34610140578160031936011261014057517f00000000000000000000000000000000000000000000000000000000000000006001600160a01b03168152602090f35b5080fd5b919050346101da5760203660031901126101da576001600160a01b038235818116939192908490036101d657610178610f6a565b83156101c05750505f54826bffffffffffffffffffffffff60a01b8216175f55167f8be0079c531659141344cd1fd0a4f28419497f9722a3daafe3b4186f6b6457e05f80a380f35b51631e4fbdf760e01b8152908101849052602490fd5b8480fd5b8280fd5b5050346101405781600319360112610140576020906101fb6110c8565b9051908152f35b505034610140578160031936011261014057517f00000000000000000000000000000000000000000000000000000000000000006001600160a01b03168152602090f35b919050346101da57806003193601126101da578135151580833503610587576024803593610272611437565b61027a611417565b84156107625783516338d52e0f60e01b81526020966001600160a01b037f00000000000000000000000000000000000000000000000000000000000000008116949290919089818681895afa90811561075857908391839161072b575b5016928751986323b872dd60e01b8b8b015233828b01523060448b01528060648b015260648a5260a08a019967ffffffffffffffff9a8181108c821117610719578a5261032490866113bd565b61032c611241565b806106f05750925b61033c6110c8565b84116106ae5760648402948486046064148515171561069c5789516278744560e21b81528c8189818c5afa90811561058b57859161066f575b508a516313a7e39560e11b81528d818a818d5afa908115610665579088918791610632575b506103ab612710926103ba92611312565b926103b46111a3565b906112c0565b04106105e557906103cd8589899461136b565b8b816103d7610fdf565b168b5198898092634c6afee560e11b82525afa9687156105db5784976105a8575b5061040487151561131f565b8135156105955761041860c8880488611305565b975b803b156101d657848091858d5180948193632bfbd9cf60e01b83528c898401525af1801561058b57908591610573575b50506002549a5f198c146105615760018c016002558a519360e085019182118583101761054f57508888878f8f94958f8f9260038c9160059c9b9a8452338c52808c01958652838c0196875260608c0197885260808c0198895260a08c0199428b5260c08d019e8f528352522097511687549160ff60a01b9051151560a01b16916affffffffffffffffffffff60a81b16171786555160018601555160028501555160038401555190820155019051151560ff801983541691161790558551948552878501528484015260608301526080820152827f1a9cc718f581e27e17db0fcaa1024309e841e13b92e3275127c277c01bd4b46f60a03393a36001805551908152f35b634e487b7160e01b5f90815260418552fd5b634e487b7160e01b8552601183528385fd5b61057c90610f95565b61058757835f61044a565b8380fd5b8b513d87823e3d90fd5b6105a260c8880488611312565b9761041a565b9096508b81813d83116105d4575b6105c08183610fbd565b810103126105d05751955f6103f8565b5f80fd5b503d6105b6565b8a513d86823e3d90fd5b895162461bcd60e51b81528088018d90526022818501527f42696e6172793a207661756c74207574696c697a6174696f6e20657863656564604482015261195960f21b6064820152608490fd5b8f8193508092503d831161065e575b61064b8183610fbd565b810103126105d0575187906103ab61039a565b503d610641565b8c513d88823e3d90fd5b90508c81813d8311610695575b6106868183610fbd565b810103126105d057515f610375565b503d61067c565b634e487b7160e01b8452601187528284fd5b885162461bcd60e51b81528087018c90526019818401527f42696e6172793a207374616b652065786365656473206d6178000000000000006044820152606490fd5b9061271061070161071393836112c0565b049061070e828a8961136b565b611305565b92610334565b83604189634e487b7160e01b5f52525ffd5b61074b91508b3d8d11610751575b6107438183610fbd565b810190611222565b5f6102d7565b503d610739565b88513d84823e3d90fd5b6013606492602086519362461bcd60e51b855284015282015272109a5b985c9e4e881e995c9bc8185b5bdd5b9d606a1b6044820152fd5b9050346101da5760203660031901126101da57816020936003923581528285522001549051908152f35b919050346101da5760203660031901126101da578060e09383358152600360205220805492600182015460028301549060ff6005600386015494860154950154169460ff81519760018060a01b038116895260a01c16151560208801528601526060850152608084015260a0830152151560c0820152f35b919050346101da576020806003193601126105875782359161085b611437565b8285526003825280852080546001600160a01b0395919086168015610b6b57600582019081549060ff8216610b285733148015610b1c575b15610ae05790839186896108a5610fdf565b16875196878092634c6afee560e11b82525afa948515610ad6578a95610aa2575b506001906108d586151561131f565b60ff19161790556001820154606481029080820460641490151715610a8f57908291610902858b95611519565b9889156109c257807f00000000000000000000000000000000000000000000000000000000000000001693541692803b156101d6578492836064928951968795869463222452f760e21b865285015260248401528c60448401525af180156109b8576109a0575b50507fc3c21d648de59fcf7444f3f5f527c19ad2bc93e8f2fcdb6b01963dea9e377cde925b82519586528501523393a36001805580f35b6109a990610f95565b6109b457855f610969565b8580fd5b84513d84823e3d90fd5b959694957f00000000000000000000000000000000000000000000000000000000000000001693925090833b156101da57606490838851958694859363222452f760e21b85528401528060248401528160448401525af18015610a8557610a4e575b50907fc3c21d648de59fcf7444f3f5f527c19ad2bc93e8f2fcdb6b01963dea9e377cde929161098e565b95610a7c7fc3c21d648de59fcf7444f3f5f527c19ad2bc93e8f2fcdb6b01963dea9e377cde94939297610f95565b95909192610a24565b84513d89823e3d90fd5b634e487b7160e01b895260118252602489fd5b9094508681813d8311610acf575b610aba8183610fbd565b81010312610acb57519360016108c6565b8980fd5b503d610ab0565b86513d8c823e3d90fd5b845162461bcd60e51b81528085018790526016602482015275109a5b985c9e4e881b9bdd08185d5d1a1bdc9a5e995960521b6044820152606490fd5b50878954163314610893565b855162461bcd60e51b8152808601889052601760248201527f42696e6172793a20616c726561647920736574746c65640000000000000000006044820152606490fd5b835162461bcd60e51b8152808401869052601f60248201527f42696e6172793a20706f736974696f6e20646f6573206e6f74206578697374006044820152606490fd5b505034610140578160031936011261014057905490516001600160a01b039091168152602090f35b5050346101405781600319360112610140576020905160648152f35b50503461014057816003193601126101405760207f62e78cea01bee320cd4e420270b5ea74000d11b0c9f74754ebdbfc544b05a25891610c30610f6a565b610c38611417565b835460ff60a01b1916600160a01b17845551338152a180f35b505034610140578160031936011261014057602090610c6e610fdf565b90516001600160a01b039091168152f35b8334610cd95780600319360112610cd957610c98610f6a565b80546001600160a01b03198116825581906001600160a01b03167f8be0079c531659141344cd1fd0a4f28419497f9722a3daafe3b4186f6b6457e08280a380f35b80fd5b50503461014057816003193601126101405760ff6020925460a01c1690519015158152f35b828434610cd9576020366003190112610cd957506101fb6020923561145a565b9050346101da57826003193601126101da57610d3b610f6a565b82549060ff8260a01c1615610d81575060ff60a01b19168255513381527f5db9ee0a495bf2e6ff9c91a7834c1ba4fdd244a5e8aa4e537bd38aeae4b073aa90602090a180f35b8251638dfc202b60e01b8152fd5b9050346101da57826003193601126101da5781516338d52e0f60e01b8152916001600160a01b03916020908490817f000000000000000000000000000000000000000000000000000000000000000086165afa928315610e195760209493610dfa575b505191168152f35b610e12919350843d8111610751576107438183610fbd565b915f610df2565b81513d86823e3d90fd5b5050346101405781600319360112610140576020906101fb6111a3565b5050346101405781600319360112610140576020906101fb611241565b838591346101da57826003193601126101da57631be0528960e01b81526020937f00000000000000000000000000000000000000000000000000000000000000006001600160a01b0316919085828281865afa918215610f6057908692918692610f2f575b5060249085519485938492636dd5b69d60e01b84528301525afa928315610f24578093610ef2575b505051908152f35b909192508382813d8311610f1d575b610f0b8183610fbd565b81010312610cd9575051908380610eea565b503d610f01565b8251903d90823e3d90fd5b8092508391933d8311610f59575b610f478183610fbd565b810103126101d6575185916024610ec2565b503d610f3d565b84513d87823e3d90fd5b5f546001600160a01b03163303610f7d57565b60405163118cdaa760e01b8152336004820152602490fd5b67ffffffffffffffff8111610fa957604052565b634e487b7160e01b5f52604160045260245ffd5b90601f8019910116810190811067ffffffffffffffff821117610fa957604052565b604051631c009f8160e11b81526001600160a01b03907f00000000000000000000000000000000000000000000000000000000000000008216906020908181600481865afa801561108f5782915f9161109a575b50602460405180958193636dd5b69d60e01b835260048301525afa90811561108f575f91611063575b5090501690565b82813d8311611088575b6110778183610fbd565b81010312610cd9575051805f61105c565b503d61106d565b6040513d5f823e3d90fd5b9182813d83116110c1575b6110af8183610fbd565b81010312610cd957508190515f611033565b503d6110a5565b6040516325ceed7f60e11b81527f00000000000000000000000000000000000000000000000000000000000000006001600160a01b0316906020908181600481865afa801561108f5782915f91611175575b50602460405180958193636dd5b69d60e01b835260048301525afa90811561108f575f91611149575b50905090565b82813d831161116e575b61115d8183610fbd565b81010312610cd9575051805f611143565b503d611153565b9182813d831161119c575b61118a8183610fbd565b81010312610cd957508190515f61111a565b503d611180565b60405163702ff72560e11b81527f00000000000000000000000000000000000000000000000000000000000000006001600160a01b0316906020908181600481865afa801561108f5782915f916111755750602460405180958193636dd5b69d60e01b835260048301525afa90811561108f575f916111495750905090565b908160209103126105d057516001600160a01b03811681036105d05790565b604051632fcccfcb60e21b81527f00000000000000000000000000000000000000000000000000000000000000006001600160a01b0316906020908181600481865afa801561108f5782915f916111755750602460405180958193636dd5b69d60e01b835260048301525afa90811561108f575f916111495750905090565b818102929181159184041417156112d357565b634e487b7160e01b5f52601160045260245ffd5b81156112f1570490565b634e487b7160e01b5f52601260045260245ffd5b919082039182116112d357565b919082018092116112d357565b1561132657565b60405162461bcd60e51b815260206004820152601c60248201527f42696e6172793a20696e76616c6964206f7261636c65207072696365000000006044820152606490fd5b60405163a9059cbb60e01b60208201526001600160a01b039092166024830152604480830193909352918152608081019167ffffffffffffffff831182841017610fa9576113bb926040526113bd565b565b905f602091828151910182855af11561108f575f513d61140e57506001600160a01b0381163b155b6113ec5750565b604051635274afe760e01b81526001600160a01b039091166004820152602490fd5b600114156113e5565b60ff5f5460a01c1661142557565b60405163d93c066560e01b8152600490fd5b600260015414611448576002600155565b604051633ee5aeb560e01b8152600490fd5b5f90815260036020526040812080549192916001600160a01b0390811615801561150b575b61150757906020600492611491610fdf565b1660405193848092634c6afee560e11b82525afa9182156114fc5784926114c2575b506114bf929350611519565b90565b9091506020813d82116114f4575b816114dd60209383610fbd565b81010312610587576114bf929350519083926114b3565b3d91506114d0565b6040513d86823e3d90fd5b5050565b5060ff60058301541661147f565b805460a01c60ff16915f8315611604575060028201545f90808311156115fe57611544915082611305565b925b5f90156115e0575060028201545f9190808210156115d9576115689250611305565b6001820154916064830293838504606414841517156112d3576115ac926115a160026115976115a794896112c0565b94015480946112e7565b956112c0565b6112e7565b908160011b828104600214831517156112d35781116115cc575050505f90565b6114bf9261070e91611312565b5050611568565b60028301549091818111156115d9576115f99250611305565b611568565b50611544565b8160028401548082105f146116235761161d9250611305565b92611546565b505061161d56fea26469706673582212201bfbe82b173b458669551afa778d80e26f3d7223609e7480a2147293b608d6fd64736f6c63430008140033","linkReferences":{}},"methodIdentifiers":{"LEVERAGE()":"8d01f0ba","asset()":"38d52e0f","configManager()":"ca0ab075","currentPayout(uint256)":"578c0b27","duration()":"0fb5a6b4","feeBps()":"24a9d853","liquidationPrice(uint256)":"b7507cfd","maxPayout()":"e0176de8","maxUtilizationBps()":"304ea9cb","openPosition(bool,uint256)":"c781a467","oracle()":"7dc0d1d0","owner()":"8da5cb5b","pause()":"8456cb59","paused()":"5c975abb","positions(uint256)":"99fbab88","renounceOwnership()":"715018a6","settle(uint256)":"8df82800","transferOwnership(address)":"f2fde38b","unpause()":"3f4ba83a","vault()":"fbfa77cf"},"id":37}