{"abi":[{"type":"constructor","inputs":[{"name":"_pyth","type":"address","internalType":"address"},{"name":"_priceId","type":"bytes32","internalType":"bytes32"},{"name":"_maxAge","type":"uint256","internalType":"uint256"},{"name":"_targetDecimals","type":"uint8","internalType":"uint8"}],"stateMutability":"nonpayable"},{"type":"function","name":"getPrice","inputs":[],"outputs":[{"name":"","type":"uint256","internalType":"uint256"}],"stateMutability":"view"},{"type":"function","name":"hasEnoughHistory","inputs":[],"outputs":[{"name":"","type":"bool","internalType":"bool"}],"stateMutability":"view"},{"type":"function","name":"maxAge","inputs":[],"outputs":[{"name":"","type":"uint256","internalType":"uint256"}],"stateMutability":"view"},{"type":"function","name":"priceId","inputs":[],"outputs":[{"name":"","type":"bytes32","internalType":"bytes32"}],"stateMutability":"view"},{"type":"function","name":"pyth","inputs":[],"outputs":[{"name":"","type":"address","internalType":"contract IPyth"}],"stateMutability":"view"},{"type":"function","name":"targetDecimals","inputs":[],"outputs":[{"name":"","type":"uint8","internalType":"uint8"}],"stateMutability":"view"}],"bytecode":{"object":"0x610100346101ba57601f61076938819003918201601f191683019291906001600160401b038411838510176101be5781608092849260409687528339810103126101ba5780516001600160a01b03811691908290036101ba5760208101516060848301519201519260ff841684036101ba5780156101765781156101325782156100ee5760805260a05260c05260e0525161059690816101d382396080518181816074015281816101190152610401015260a05181818160c6015281816102d601526103af015260c05181818160ec0152818161023a01526103d5015260e051818181610178015261029b0152f35b845162461bcd60e51b815260206004820152601760248201527f507974684f7261636c653a207a65726f206d61784167650000000000000000006044820152606490fd5b845162461bcd60e51b815260206004820152601860248201527f507974684f7261636c653a207a65726f207072696365496400000000000000006044820152606490fd5b845162461bcd60e51b815260206004820152601560248201527f507974684f7261636c653a207a65726f207079746800000000000000000000006044820152606490fd5b5f80fd5b634e487b7160e01b5f52604160045260245ffdfe608060408181526004361015610013575f80fd5b5f91823560e01c90816331189334146102bf5750806336c1387e146102825780634b963e971461025d578063687043c51461022357806398d5fdca146100a75763f98d06f014610061575f80fd5b346100a357816003193601126100a357517f00000000000000000000000000000000000000000000000000000000000000006001600160a01b03168152602090f35b5080fd5b50346100a357816003193601126100a357805163052571af60e51b81527f000000000000000000000000000000000000000000000000000000000000000060048201527f00000000000000000000000000000000000000000000000000000000000000006024820152916080836044817f00000000000000000000000000000000000000000000000000000000000000006001600160a01b03165afa9283156102175781936101e7575b50825160070b13156101a45761019d82826020945167ffffffffffffffff1691015160030b7f00000000000000000000000000000000000000000000000000000000000000009161048f565b9051908152f35b5162461bcd60e51b815260206004820152601e60248201527f507974684f7261636c653a206e6f6e2d706f73697469766520707269636500006044820152606490fd5b61020991935060803d8111610210575b61020181836102f9565b81019061032f565b915f610151565b503d6101f7565b509051903d90823e3d90fd5b50346100a357816003193601126100a357602090517f00000000000000000000000000000000000000000000000000000000000000008152f35b50346100a357816003193601126100a3576020906102796103a0565b90519015158152f35b50346100a357816003193601126100a3576020905160ff7f0000000000000000000000000000000000000000000000000000000000000000168152f35b8390346100a357816003193601126100a3576020907f00000000000000000000000000000000000000000000000000000000000000008152f35b90601f8019910116810190811067ffffffffffffffff82111761031b57604052565b634e487b7160e01b5f52604160045260245ffd5b9081608091031261039c576040519067ffffffffffffffff608083018181118482101761031b5760405281518060070b810361039c5783526020820151908116810361039c5760208301526040810151908160030b820361039c5760609160408401520151606082015290565b5f80fd5b60405163052571af60e51b81527f000000000000000000000000000000000000000000000000000000000000000060048201527f000000000000000000000000000000000000000000000000000000000000000060248201526080816044817f00000000000000000000000000000000000000000000000000000000000000006001600160a01b03165afa5f9181610447575b5061043d57505f90565b5f905160070b1390565b61046091925060803d81116102105761020181836102f9565b905f610433565b63ffffffff16604d811161047b57600a0a90565b634e487b7160e01b5f52601160045260245ffd5b9160ff1660030b9060030b0190637fffffff1990818312637fffffff84131761047b575f91600384900b9083821261050657505067ffffffffffffffff6104dd91169263ffffffff16610467565b918281029281840414901517156104f2575090565b634e487b7160e01b81526011600452602490fd5b9080929394501461054c5761052290830363ffffffff16610467565b918215610538575067ffffffffffffffff160490565b634e487b7160e01b81526012600452602490fd5b634e487b7160e01b83526011600452602483fdfea264697066735822122057ec5b4ed2a024dfa6f498d00da4f59a61b70b6fe675c7a9d7916a8312e8a1b564736f6c63430008140033","linkReferences":{}},"methodIdentifiers":{"getPrice()":"98d5fdca","hasEnoughHistory()":"4b963e97","maxAge()":"687043c5","priceId()":"31189334","pyth()":"f98d06f0","targetDecimals()":"36c1387e"},"id":39}