{"abi":[{"type":"constructor","inputs":[{"name":"_pool","type":"address","internalType":"address"},{"name":"_twapPeriod","type":"uint32","internalType":"uint32"},{"name":"_baseToken","type":"address","internalType":"address"},{"name":"_quoteToken","type":"address","internalType":"address"},{"name":"_baseAmount","type":"uint128","internalType":"uint128"}],"stateMutability":"nonpayable"},{"type":"function","name":"baseAmount","inputs":[],"outputs":[{"name":"","type":"uint128","internalType":"uint128"}],"stateMutability":"view"},{"type":"function","name":"baseToken","inputs":[],"outputs":[{"name":"","type":"address","internalType":"address"}],"stateMutability":"view"},{"type":"function","name":"getPrice","inputs":[],"outputs":[{"name":"","type":"uint256","internalType":"uint256"}],"stateMutability":"view"},{"type":"function","name":"hasEnoughHistory","inputs":[],"outputs":[{"name":"","type":"bool","internalType":"bool"}],"stateMutability":"view"},{"type":"function","name":"pool","inputs":[],"outputs":[{"name":"","type":"address","internalType":"contract IUniswapV3PoolMinimal"}],"stateMutability":"view"},{"type":"function","name":"quoteToken","inputs":[],"outputs":[{"name":"","type":"address","internalType":"address"}],"stateMutability":"view"},{"type":"function","name":"twapPeriod","inputs":[],"outputs":[{"name":"","type":"uint32","internalType":"uint32"}],"stateMutability":"view"}],"bytecode":{"object":"0x610120346200023757601f620013ac38819003918201601f1916830191906001600160401b038311848410176200023b578160a09285926040958652833981010312620002375762000051826200024f565b91602081015163ffffffff8116908181036200023757620000748484016200024f565b91608062000085606086016200024f565b940151956001600160801b0387169081880362000237576001600160a01b03908116928315620002045715620001cf5780851615159081620001c2575b50156200018d5715620001495760805260a05260c05260e0526101009182525161114791826200026583396080518281816101ba01528181610b100152610e0a015260a051828181608a015281816101100152610bc6015260c05182818160c601526102b3015260e0518281816102d50152610dc70152518181816102910152610d8e0152f35b845162461bcd60e51b815260206004820152601360248201527f496e76616c6964206261736520616d6f756e74000000000000000000000000006044820152606490fd5b855162461bcd60e51b815260206004820152600e60248201526d496e76616c696420746f6b656e7360901b6044820152606490fd5b9050851615155f620000c2565b865162461bcd60e51b815260206004820152600e60248201526d125b9d985b1a59081c195c9a5bd960921b6044820152606490fd5b875162461bcd60e51b815260206004820152600c60248201526b125b9d985b1a59081c1bdbdb60a21b6044820152606490fd5b5f80fd5b634e487b7160e01b5f52604160045260245ffd5b51906001600160a01b0382168203620002375756fe6080604081815260049182361015610015575f80fd5b5f92833560e01c91826316f0115b14610df657508163217a4b7014610db25781634864d14014610d6e5781634b963e9714610aef57816398d5fdca146100f557508063c55dae63146100b25763f62073261461006f575f80fd5b346100ae57816003193601126100ae576020905163ffffffff7f0000000000000000000000000000000000000000000000000000000000000000168152f35b5080fd5b50346100ae57816003193601126100ae57517f00000000000000000000000000000000000000000000000000000000000000006001600160a01b03168152602090f35b828434610aec5780600319360112610aec5763ffffffff90817f000000000000000000000000000000000000000000000000000000000000000016938415610ac45783519167ffffffffffffffff906060840182811185821017610ab15786526002845260209687850191873684378161016e87610e87565b528061017987610ea8565b52875163883bdbfd60e01b8152602496878201908b8884015251809152604482019490835b8c828210610a9b575050505081818060018060a01b03960381877f0000000000000000000000000000000000000000000000000000000000000000165afa948515610a91578291839661097f575b50506102016101fa82610ea8565b5191610e87565b5160060b9060060b0391667fffffffffffff1994667fffffffffffff84138685121761095b578461023d8161023584610ea8565b511692610e87565b511690039084821161095b5760060b9260060b831561096d575f199581148487141661095b5783810560020b93838212918261094c575b5050610938575b891b640100000000600160c01b031615610926577f0000000000000000000000000000000000000000000000000000000000000000967f0000000000000000000000000000000000000000000000000000000000000000947f00000000000000000000000000000000000000000000000000000000000000009360020b8381121561092057600160ff1b811461090e578084035b620d89e881116108e7578c9291859160018116156108d5576001600160881b036ffffcb933bd6fad37aa2d162d1a5940015b1694600282166108a1575b8b821661086d575b60088216610839575b60108216610805575b81166107d3575b8d81166107a1575b60809081811661076e575b610100811661073b575b6102008116610708575b61040081166106d5575b61080081166106a2575b611000811661066f575b612000811661063c575b6140008116610609575b61800081166105d6575b6201000081166105a3575b620200008116610571575b62040000811661052e575b62080000166104f2575b50136104d3575b50808b1c91166104ca5760ff825b1681018091116104b8578316956001600160801b039586881161047e578780029780890481149015171561046d5750505081169116101561045e5761045692169061106d565b905b51908152f35b6104689216610ff3565b610456565b634e487b7160e01b83526011905281fd5b5050949061048d828493610ede565b955016911610156104a9576104a3921690610faf565b90610458565b6104b39216610f27565b6104a3565b634e487b7160e01b8252601186528682fd5b60ff6001610410565b81156104e057048b610402565b634e487b7160e01b8452601288528884fd5b90936b048a170391f7dc42444e8fa28082029350811591840414171561051c571c9184908e6103fb565b634e487b7160e01b865260118a528a86fd5b94909192506d2216e584f5fa1ea926041bedfe989081810291818304149015171561055f57811c93869291906103f1565b634e487b7160e01b875260118b528b87fd5b94909192506e5d6af8dedb81196699c329225ee6049081810291818304149015171561055f5790869291811c946103e6565b94909192506f09aa508b5b7a84e1c677de54f3e99bc99081810291818304149015171561055f5790869291811c946103db565b94909192506f31be135f97d08fd981231505542fcfa69081810291818304149015171561055f5790869291811c946103d0565b94909192506f70d869a156d2a1b890bb3df62baf32f79081810291818304149015171561055f5790869291811c946103c6565b94909192506fa9f746462d870fdf8a65dc1f90e061e59081810291818304149015171561055f5790869291811c946103bc565b94909192506fd097f3bdfd2022b8845ad8f792aa58259081810291818304149015171561055f5790869291811c946103b2565b94909192506fe7159475a2c29b7443b29c7fa6e889d99081810291818304149015171561055f5790869291811c946103a8565b94909192506ff3392b0822b70005940c7a398e4b70f39081810291818304149015171561055f5790869291811c9461039e565b94909192506ff987a7253ac413176f2b074cf7815e549081810291818304149015171561055f5790869291811c94610394565b94909192506ffcbe86c7900a88aedcffc83b479aa3a49081810291818304149015171561055f5790869291811c9461038a565b94909192506ffe5dee046a99a2a811c461f1969c30539081810291818304149015171561055f5790869291811c94610380565b939091506fff2ea16466c96a3843ec78b326b528619081810291818304149015171561051c5790859160801c93610375565b939091506fff973b41fa98c081472e6896dfb254c09081810291818304149015171561051c5790859160801c9361036d565b50915091926fffcb9843d60f6159c9db58835c9266449081810291818304149015171561051c5760801c929185918e610366565b50915091926fffe5caca7e10e4e61c3624eaa0941cd09081810291818304149015171561051c5760801c929185918e61035d565b50915091926ffff2e50f5f656932ef12357cf3c7fdcc9081810291818304149015171561051c5760801c929185918e610354565b50915091926ffff97272373d413259a46990580e213a9081810291818304149015171561051c5760801c929185918e61034c565b6001600160881b03600160801b610341565b508a5162461bcd60e51b81528089018d90526001818b0152601560fa1b6044820152606490fd5b634e487b7160e01b8452601188528884fd5b8061030f565b634e487b7160e01b8152601285528590fd5b91627fffff1981146104b85784019161027b565b0760060b151590508b80610274565b634e487b7160e01b8352601187528783fd5b634e487b7160e01b8352601287528783fd5b915094503d8083833e6109928183610e39565b8101948982870312610a6e578151818111610a725782019186601f84011215610a72578251926109c184610e6f565b936109ce8d519586610e39565b8085528d8086019160051b83010191898311610a8d57908e809201905b838210610a765750509050810151918211610a7257019480601f87011215610a6e578551610a1881610e6f565b96610a258c519889610e39565b8188528c8089019260051b820101928311610a6a57908c809201905b838210610a5357505050508a806101ec565b828091610a5f84610eca565b815201910190610a41565b8480fd5b8280fd5b8380fd5b828091610a8284610eb8565b8152019101906109eb565b8680fd5b89513d84823e3d90fd5b83518c168852968701969092019160010161019e565b634e487b7160e01b825260418452602482fd5b606490602085519162461bcd60e51b83528201526002602482015261042560f41b6044820152fd5b80fd5b828434610aec5780600319360112610aec578151633850c7bd60e01b8152917f00000000000000000000000000000000000000000000000000000000000000006001600160a01b031660e0848681845afa908115610d625783948492610cd6575b5061ffff809216948515610cae57821660010191808311610c9b578351958163252c09d760e01b94858952160616868601526080918286602481855afa958615610c915785908697610c6c575b509515610c01575b50505063ffffffff8093168342160391838311610bee5750602093505191807f000000000000000000000000000000000000000000000000000000000000000016911610158152f35b634e487b7160e01b815260118552602490fd5b8395506024839493929351809481938252878a8301525afa918215610c62578392610c32575b505091848080610ba5565b610c519250803d10610c5b575b610c498183610e39565b8101906110cd565b5050508480610c27565b503d610c3f565b84513d85823e3d90fd5b9050610c86919650833d8511610c5b57610c498183610e39565b979291505088610b9d565b84513d87823e3d90fd5b634e487b7160e01b855260118752602485fd5b835162461bcd60e51b815260208189015260026024820152614e4960f01b6044820152606490fd5b9450905060e0843d8211610d5a575b81610cf260e09383610e39565b81010312610a6e57610d0384610eca565b5060208401518060020b03610a6e57610d1d8285016110b1565b610d29606086016110b1565b94610d36608082016110b1565b5060a081015160ff811603610a6a5760c0610d5191016110c0565b50939086610b50565b3d9150610ce5565b505051903d90823e3d90fd5b5050346100ae57816003193601126100ae57602090516001600160801b037f0000000000000000000000000000000000000000000000000000000000000000168152f35b5050346100ae57816003193601126100ae57517f00000000000000000000000000000000000000000000000000000000000000006001600160a01b03168152602090f35b8490346100ae57816003193601126100ae577f00000000000000000000000000000000000000000000000000000000000000006001600160a01b03168152602090f35b90601f8019910116810190811067ffffffffffffffff821117610e5b57604052565b634e487b7160e01b5f52604160045260245ffd5b67ffffffffffffffff8111610e5b5760051b60200190565b805115610e945760200190565b634e487b7160e01b5f52603260045260245ffd5b805160011015610e945760400190565b51908160060b8203610ec657565b5f80fd5b51906001600160a01b0382168203610ec657565b5f198282099082810292838084109303928084039314610f1e57680100000000000000009183831115610ec6570990828211900360c01b910360401c1790565b50505060401c90565b600160801b915f19828409928260801b92838086109503948086039514610fa15784831115610ec65782910981600181190116809204600280826003021880830282030280830282030280830282030280830282030280830282030280920290030293600183805f03040190848311900302920304170290565b505080925015610ec6570490565b5f198282099082810292838084109303928084039314610fea57600160801b9183831115610ec6570990828211900360801b910360801c1790565b50505060801c90565b600160c01b915f19828409928260c01b92838086109503948086039514610fa15784831115610ec65782910981600181190116809204600280826003021880830282030280830282030280830282030280830282030280830282030280920290030293600183805f03040190848311900302920304170290565b5f1982820990828102928380841093039280840393146110a857600160c01b9183831115610ec6570990828211900360401b910360c01c1790565b50505060c01c90565b519061ffff82168203610ec657565b51908115158203610ec657565b9190826080910312610ec657815163ffffffff81168103610ec657916110f560208201610eb8565b9161110e606061110760408501610eca565b93016110c0565b9056fea264697066735822122022f6a2e54be277a6e6b42914cd2db67e8915e7b6cbc124fea2130d4e2f982d4e64736f6c63430008140033","linkReferences":{}},"methodIdentifiers":{"baseAmount()":"4864d140","baseToken()":"c55dae63","getPrice()":"98d5fdca","hasEnoughHistory()":"4b963e97","pool()":"16f0115b","quoteToken()":"217a4b70","twapPeriod()":"f6207326"},"id":40}