{"abi":[{"type":"constructor","inputs":[],"stateMutability":"nonpayable"},{"type":"function","name":"DURATION","inputs":[],"outputs":[{"name":"","type":"bytes32","internalType":"bytes32"}],"stateMutability":"view"},{"type":"function","name":"FEE_BPS","inputs":[],"outputs":[{"name":"","type":"bytes32","internalType":"bytes32"}],"stateMutability":"view"},{"type":"function","name":"MAX_PAYOUT","inputs":[],"outputs":[{"name":"","type":"bytes32","internalType":"bytes32"}],"stateMutability":"view"},{"type":"function","name":"MAX_UTILIZATION_BPS","inputs":[],"outputs":[{"name":"","type":"bytes32","internalType":"bytes32"}],"stateMutability":"view"},{"type":"function","name":"ORACLE","inputs":[],"outputs":[{"name":"","type":"bytes32","internalType":"bytes32"}],"stateMutability":"view"},{"type":"function","name":"VAULT_CONTROLLER","inputs":[],"outputs":[{"name":"","type":"bytes32","internalType":"bytes32"}],"stateMutability":"view"},{"type":"function","name":"getConfig","inputs":[{"name":"key","type":"bytes32","internalType":"bytes32"}],"outputs":[{"name":"","type":"bytes32","internalType":"bytes32"}],"stateMutability":"view"},{"type":"function","name":"owner","inputs":[],"outputs":[{"name":"","type":"address","internalType":"address"}],"stateMutability":"view"},{"type":"function","name":"renounceOwnership","inputs":[],"outputs":[],"stateMutability":"nonpayable"},{"type":"function","name":"set","inputs":[{"name":"key","type":"bytes32","internalType":"bytes32"},{"name":"value","type":"bytes32","internalType":"bytes32"}],"outputs":[],"stateMutability":"nonpayable"},{"type":"function","name":"transferOwnership","inputs":[{"name":"newOwner","type":"address","internalType":"address"}],"outputs":[],"stateMutability":"nonpayable"},{"type":"event","name":"ConfigSet","inputs":[{"name":"key","type":"bytes32","indexed":true,"internalType":"bytes32"},{"name":"value","type":"bytes32","indexed":false,"internalType":"bytes32"}],"anonymous":false},{"type":"event","name":"OwnershipTransferred","inputs":[{"name":"previousOwner","type":"address","indexed":true,"internalType":"address"},{"name":"newOwner","type":"address","indexed":true,"internalType":"address"}],"anonymous":false},{"type":"error","name":"OwnableInvalidOwner","inputs":[{"name":"owner","type":"address","internalType":"address"}]},{"type":"error","name":"OwnableUnauthorizedAccount","inputs":[{"name":"account","type":"address","internalType":"address"}]}],"bytecode":{"object":"0x60808060405234610078573315610063575f8054336001600160a01b03198216811783556040519290916001600160a01b0316907f8be0079c531659141344cd1fd0a4f28419497f9722a3daafe3b4186f6b6457e09080a361037c908161007d8239f35b631e4fbdf760e01b81525f6004820152602490fd5b5f80fdfe608060408181526004361015610013575f80fd5b5f91823560e01c9081631be05289146102f65750806338013f02146102d35780634b9ddafe146102ac5780636dd5b69d14610284578063715018a6146102275780638da5cb5b14610200578063b0c449fe146101d3578063bf333f2c146101af578063e05fee4a1461017f578063f2fde38b146100f35763f71f7a2514610098575f80fd5b346100ef57806003193601126100ef577f56ee5854cbbb3e71c5a0e7779ca5baebc969fc16f9a7b4ed19b6bd1183e74ab2602060043592602435906100db61031b565b84865260018352818187205551908152a280f35b5080fd5b50346100ef5760203660031901126100ef576001600160a01b03600435818116929083900361017b5761012461031b565b8215610164575082546001600160a01b0319811683178455167f8be0079c531659141344cd1fd0a4f28419497f9722a3daafe3b4186f6b6457e08380a380f35b51631e4fbdf760e01b815260048101849052602490fd5b8380fd5b50346100ef57816003193601126100ef5751724d41585f5554494c495a4154494f4e5f42505360681b8152602090f35b50346100ef57816003193601126100ef5751664645455f42505360c81b8152602090f35b50346100ef57816003193601126100ef57516f2b20aaa62a2fa1a7a72a2927a62622a960811b8152602090f35b50346100ef57816003193601126100ef57905490516001600160a01b039091168152602090f35b823461028157806003193601126102815761024061031b565b80546001600160a01b03198116825581906001600160a01b03167f8be0079c531659141344cd1fd0a4f28419497f9722a3daafe3b4186f6b6457e08280a380f35b80fd5b50346100ef5760203660031901126100ef578060209260043581526001845220549051908152f35b50346100ef57816003193601126100ef57516913505617d4105653d55560b21b8152602090f35b50346100ef57816003193601126100ef5751654f5241434c4560d01b8152602090f35b8390346100ef57816003193601126100ef5767222aa920aa24a7a760c11b8152602090f35b5f546001600160a01b0316330361032e57565b60405163118cdaa760e01b8152336004820152602490fdfea2646970667358221220877e71627de9fa6b58e7bdc0de02ba9ceb9f2c274709bd179971f554bf0bf7ff64736f6c63430008140033","linkReferences":{}},"methodIdentifiers":{"DURATION()":"1be05289","FEE_BPS()":"bf333f2c","MAX_PAYOUT()":"4b9ddafe","MAX_UTILIZATION_BPS()":"e05fee4a","ORACLE()":"38013f02","VAULT_CONTROLLER()":"b0c449fe","getConfig(bytes32)":"6dd5b69d","owner()":"8da5cb5b","renounceOwnership()":"715018a6","set(bytes32,bytes32)":"f71f7a25","transferOwnership(address)":"f2fde38b"},"id":38}