{"abi":[{"type":"constructor","inputs":[{"name":"asset_","type":"address","internalType":"contract IERC20"},{"name":"name_","type":"string","internalType":"string"},{"name":"symbol_","type":"string","internalType":"string"},{"name":"configManager_","type":"address","internalType":"contract ConfigurationManager"}],"stateMutability":"nonpayable"},{"type":"function","name":"allowance","inputs":[{"name":"owner","type":"address","internalType":"address"},{"name":"spender","type":"address","internalType":"address"}],"outputs":[{"name":"","type":"uint256","internalType":"uint256"}],"stateMutability":"view"},{"type":"function","name":"approve","inputs":[{"name":"spender","type":"address","internalType":"address"},{"name":"value","type":"uint256","internalType":"uint256"}],"outputs":[{"name":"","type":"bool","internalType":"bool"}],"stateMutability":"nonpayable"},{"type":"function","name":"asset","inputs":[],"outputs":[{"name":"","type":"address","internalType":"address"}],"stateMutability":"view"},{"type":"function","name":"balanceOf","inputs":[{"name":"account","type":"address","internalType":"address"}],"outputs":[{"name":"","type":"uint256","internalType":"uint256"}],"stateMutability":"view"},{"type":"function","name":"configManager","inputs":[],"outputs":[{"name":"","type":"address","internalType":"contract ConfigurationManager"}],"stateMutability":"view"},{"type":"function","name":"convertToAssets","inputs":[{"name":"shares","type":"uint256","internalType":"uint256"}],"outputs":[{"name":"","type":"uint256","internalType":"uint256"}],"stateMutability":"view"},{"type":"function","name":"convertToShares","inputs":[{"name":"assets","type":"uint256","internalType":"uint256"}],"outputs":[{"name":"","type":"uint256","internalType":"uint256"}],"stateMutability":"view"},{"type":"function","name":"decimals","inputs":[],"outputs":[{"name":"","type":"uint8","internalType":"uint8"}],"stateMutability":"view"},{"type":"function","name":"deposit","inputs":[{"name":"assets","type":"uint256","internalType":"uint256"},{"name":"receiver","type":"address","internalType":"address"}],"outputs":[{"name":"","type":"uint256","internalType":"uint256"}],"stateMutability":"nonpayable"},{"type":"function","name":"lockLiquidity","inputs":[{"name":"amount","type":"uint256","internalType":"uint256"}],"outputs":[],"stateMutability":"nonpayable"},{"type":"function","name":"lockedAssets","inputs":[],"outputs":[{"name":"","type":"uint256","internalType":"uint256"}],"stateMutability":"view"},{"type":"function","name":"maxDeposit","inputs":[{"name":"","type":"address","internalType":"address"}],"outputs":[{"name":"","type":"uint256","internalType":"uint256"}],"stateMutability":"view"},{"type":"function","name":"maxMint","inputs":[{"name":"","type":"address","internalType":"address"}],"outputs":[{"name":"","type":"uint256","internalType":"uint256"}],"stateMutability":"view"},{"type":"function","name":"maxRedeem","inputs":[{"name":"owner","type":"address","internalType":"address"}],"outputs":[{"name":"","type":"uint256","internalType":"uint256"}],"stateMutability":"view"},{"type":"function","name":"maxWithdraw","inputs":[{"name":"owner","type":"address","internalType":"address"}],"outputs":[{"name":"","type":"uint256","internalType":"uint256"}],"stateMutability":"view"},{"type":"function","name":"mint","inputs":[{"name":"shares","type":"uint256","internalType":"uint256"},{"name":"receiver","type":"address","internalType":"address"}],"outputs":[{"name":"","type":"uint256","internalType":"uint256"}],"stateMutability":"nonpayable"},{"type":"function","name":"name","inputs":[],"outputs":[{"name":"","type":"string","internalType":"string"}],"stateMutability":"view"},{"type":"function","name":"previewDeposit","inputs":[{"name":"assets","type":"uint256","internalType":"uint256"}],"outputs":[{"name":"","type":"uint256","internalType":"uint256"}],"stateMutability":"view"},{"type":"function","name":"previewMint","inputs":[{"name":"shares","type":"uint256","internalType":"uint256"}],"outputs":[{"name":"","type":"uint256","internalType":"uint256"}],"stateMutability":"view"},{"type":"function","name":"previewRedeem","inputs":[{"name":"shares","type":"uint256","internalType":"uint256"}],"outputs":[{"name":"","type":"uint256","internalType":"uint256"}],"stateMutability":"view"},{"type":"function","name":"previewWithdraw","inputs":[{"name":"assets","type":"uint256","internalType":"uint256"}],"outputs":[{"name":"","type":"uint256","internalType":"uint256"}],"stateMutability":"view"},{"type":"function","name":"redeem","inputs":[{"name":"shares","type":"uint256","internalType":"uint256"},{"name":"receiver","type":"address","internalType":"address"},{"name":"owner","type":"address","internalType":"address"}],"outputs":[{"name":"","type":"uint256","internalType":"uint256"}],"stateMutability":"nonpayable"},{"type":"function","name":"releaseLiquidity","inputs":[{"name":"locked","type":"uint256","internalType":"uint256"},{"name":"recipient","type":"address","internalType":"address"},{"name":"payout","type":"uint256","internalType":"uint256"}],"outputs":[],"stateMutability":"nonpayable"},{"type":"function","name":"symbol","inputs":[],"outputs":[{"name":"","type":"string","internalType":"string"}],"stateMutability":"view"},{"type":"function","name":"totalAssets","inputs":[],"outputs":[{"name":"","type":"uint256","internalType":"uint256"}],"stateMutability":"view"},{"type":"function","name":"totalSupply","inputs":[],"outputs":[{"name":"","type":"uint256","internalType":"uint256"}],"stateMutability":"view"},{"type":"function","name":"transfer","inputs":[{"name":"to","type":"address","internalType":"address"},{"name":"value","type":"uint256","internalType":"uint256"}],"outputs":[{"name":"","type":"bool","internalType":"bool"}],"stateMutability":"nonpayable"},{"type":"function","name":"transferFrom","inputs":[{"name":"from","type":"address","internalType":"address"},{"name":"to","type":"address","internalType":"address"},{"name":"value","type":"uint256","internalType":"uint256"}],"outputs":[{"name":"","type":"bool","internalType":"bool"}],"stateMutability":"nonpayable"},{"type":"function","name":"withdraw","inputs":[{"name":"assets","type":"uint256","internalType":"uint256"},{"name":"receiver","type":"address","internalType":"address"},{"name":"owner","type":"address","internalType":"address"}],"outputs":[{"name":"","type":"uint256","internalType":"uint256"}],"stateMutability":"nonpayable"},{"type":"event","name":"Approval","inputs":[{"name":"owner","type":"address","indexed":true,"internalType":"address"},{"name":"spender","type":"address","indexed":true,"internalType":"address"},{"name":"value","type":"uint256","indexed":false,"internalType":"uint256"}],"anonymous":false},{"type":"event","name":"Deposit","inputs":[{"name":"sender","type":"address","indexed":true,"internalType":"address"},{"name":"owner","type":"address","indexed":true,"internalType":"address"},{"name":"assets","type":"uint256","indexed":false,"internalType":"uint256"},{"name":"shares","type":"uint256","indexed":false,"internalType":"uint256"}],"anonymous":false},{"type":"event","name":"LiquidityLocked","inputs":[{"name":"amount","type":"uint256","indexed":false,"internalType":"uint256"}],"anonymous":false},{"type":"event","name":"LiquidityReleased","inputs":[{"name":"locked","type":"uint256","indexed":false,"internalType":"uint256"},{"name":"recipient","type":"address","indexed":true,"internalType":"address"},{"name":"payout","type":"uint256","indexed":false,"internalType":"uint256"}],"anonymous":false},{"type":"event","name":"Transfer","inputs":[{"name":"from","type":"address","indexed":true,"internalType":"address"},{"name":"to","type":"address","indexed":true,"internalType":"address"},{"name":"value","type":"uint256","indexed":false,"internalType":"uint256"}],"anonymous":false},{"type":"event","name":"Withdraw","inputs":[{"name":"sender","type":"address","indexed":true,"internalType":"address"},{"name":"receiver","type":"address","indexed":true,"internalType":"address"},{"name":"owner","type":"address","indexed":true,"internalType":"address"},{"name":"assets","type":"uint256","indexed":false,"internalType":"uint256"},{"name":"shares","type":"uint256","indexed":false,"internalType":"uint256"}],"anonymous":false},{"type":"error","name":"ERC20InsufficientAllowance","inputs":[{"name":"spender","type":"address","internalType":"address"},{"name":"allowance","type":"uint256","internalType":"uint256"},{"name":"needed","type":"uint256","internalType":"uint256"}]},{"type":"error","name":"ERC20InsufficientBalance","inputs":[{"name":"sender","type":"address","internalType":"address"},{"name":"balance","type":"uint256","internalType":"uint256"},{"name":"needed","type":"uint256","internalType":"uint256"}]},{"type":"error","name":"ERC20InvalidApprover","inputs":[{"name":"approver","type":"address","internalType":"address"}]},{"type":"error","name":"ERC20InvalidReceiver","inputs":[{"name":"receiver","type":"address","internalType":"address"}]},{"type":"error","name":"ERC20InvalidSender","inputs":[{"name":"sender","type":"address","internalType":"address"}]},{"type":"error","name":"ERC20InvalidSpender","inputs":[{"name":"spender","type":"address","internalType":"address"}]},{"type":"error","name":"ERC4626ExceededMaxDeposit","inputs":[{"name":"receiver","type":"address","internalType":"address"},{"name":"assets","type":"uint256","internalType":"uint256"},{"name":"max","type":"uint256","internalType":"uint256"}]},{"type":"error","name":"ERC4626ExceededMaxMint","inputs":[{"name":"receiver","type":"address","internalType":"address"},{"name":"shares","type":"uint256","internalType":"uint256"},{"name":"max","type":"uint256","internalType":"uint256"}]},{"type":"error","name":"ERC4626ExceededMaxRedeem","inputs":[{"name":"owner","type":"address","internalType":"address"},{"name":"shares","type":"uint256","internalType":"uint256"},{"name":"max","type":"uint256","internalType":"uint256"}]},{"type":"error","name":"ERC4626ExceededMaxWithdraw","inputs":[{"name":"owner","type":"address","internalType":"address"},{"name":"assets","type":"uint256","internalType":"uint256"},{"name":"max","type":"uint256","internalType":"uint256"}]},{"type":"error","name":"SafeERC20FailedOperation","inputs":[{"name":"token","type":"address","internalType":"address"}]}],"bytecode":{"object":"0x60e08060405234620003f75762001af08038038091620000208285620003fb565b8339810190608081830312620003f75780516001600160a01b03928382168203620003f75760208381015190926001600160401b03929091838111620003f757816200006e9187016200043b565b906040860151848111620003f7576060916200008c9188016200043b565b95015195861692838703620003f757815181811162000302576003908154906001948583811c93168015620003ec575b89841014620003d8578190601f9384811162000385575b50899084831160011462000322575f9262000316575b50505f1982851b1c191690851b1782555b8751928311620003025760049788548581811c91168015620002f7575b89821014620002e4578281116200029c575b508791841160011462000235579383949184925f9562000229575b50501b925f19911b1c19161784555b6200015e81620004a3565b901562000220575b60a05260805215620001d2578260c052604051611587908162000569823960805181818161062901528181610791015281816108db015281816110e10152818161124c015261146e015260a051816107d7015260c05181818161023b0152818161054e015261084f0152f35b60405162461bcd60e51b815291820152602260248201527f4c69717569646974795661756c743a207a65726f20636f6e6669674d616e616760448201526132b960f11b606482015260849150fd5b50601262000166565b015193505f8062000144565b9190601f19841692895f5284895f20945f5b8b898383106200028457505050106200026a575b50505050811b01845562000153565b01519060f8845f19921b161c191690555f8080806200025b565b86860151895590970196948501948893500162000247565b895f52885f208380870160051c8201928b8810620002da575b0160051c019086905b828110620002ce57505062000129565b5f8155018690620002be565b92508192620002b5565b60228a634e487b7160e01b5f525260245ffd5b90607f169062000117565b634e487b7160e01b5f52604160045260245ffd5b015190505f80620000e9565b90879350601f19831691865f528b5f20925f5b8d8282106200036e575050841162000356575b505050811b018255620000fa565b01515f1983871b60f8161c191690555f808062000348565b8385015186558b9790950194938401930162000335565b909150845f52895f208480850160051c8201928c8610620003ce575b918991869594930160051c01915b828110620003bf575050620000d3565b5f8155859450899101620003af565b92508192620003a1565b634e487b7160e01b5f52602260045260245ffd5b92607f1692620000bc565b5f80fd5b601f909101601f19168101906001600160401b038211908210176200030257604052565b6001600160401b0381116200030257601f01601f191660200190565b919080601f84011215620003f75782519062000457826200041f565b91620004676040519384620003fb565b808352602091828287010111620003f7575f5b8181106200048f5750825f9394955001015290565b85810183015184820184015282016200047a565b6040805163313ce56760e01b60208201908152600482529293929181016001600160401b038111828210176200030257604052515f9384928392916001600160a01b03165afa3d156200055f573d90620004fd826200041f565b916200050d6040519384620003fb565b82523d84602084013e5b8062000552575b62000529575b508190565b6020818051810103126200054e576020015160ff811162000524576001925060ff1690565b8280fd5b506020815110156200051e565b6060906200051756fe60406080815260049081361015610014575f80fd5b5f90813560e01c92836301e1d11414610c9b57836306fdde0314610ba857836307a2d13a14610778578363095ea7b314610b005783630a28a47714610ae157836318160ddd14610ac357836323b872dd14610a87578363274fc72a14610a695783632bfbd9cf14610821578363313ce567146107c057836338d52e0f1461077d578363402d267d1461026a5783634cdad506146107785783636e553f651461074557836370a082311461072557836388914bdc1461050f57836394bf804d146104d857836395d89b41146103d5578363a9059cbb146103a5578363b3d7f6b914610386578363b460af94146102fa578363ba0876521461026f57508263c63d75b61461026a578263c6e6f59214610161578263ca0ab07514610228578263ce96cb77146101f1578263d905777e146101b1578263dd62ed3e1461016657505063ef8b30f714610161575f80fd5b610dae565b346101ad57806003193601126101ad5780602092610182610d28565b61018a610d3e565b6001600160a01b0391821683526001865283832091168252845220549051908152f35b5080fd5b346101ad5760203660031901126101ad576020906101ea6101d0610d28565b6001600160a01b03165f9081526020819052604090205490565b9051908152f35b346101ad5760203660031901126101ad576020916101ea9082906001600160a01b0361021b610d28565b1681528085522054611059565b346101ad57816003193601126101ad57517f00000000000000000000000000000000000000000000000000000000000000006001600160a01b03168152602090f35b610d54565b82346102f757829061028036610d79565b6001600160a01b038116845260208490529590922054909493908086116102c2575050836102bc916102b3602096611059565b948591336111a0565b51908152f35b9251632e52afbb60e21b81526001600160a01b0390941690840190815260208101949094525060408301529081906060010390fd5b80fd5b8290346101ad5761032f91839161031036610d79565b6001600160a01b03811685526020859052969093205490959490611059565b8086116103515750506102bc9084610348602096610fcf565b948592336111a0565b9251633fa733bb60e21b81526001600160a01b0390941690840190815260208101949094525060408301529081906060010390fd5b91346102f75760203660031901126102f757506101ea6020923561102c565b50346101ad57806003193601126101ad576020906103ce6103c4610d28565b6024359033610e02565b5160018152f35b9250346101ad57816003193601126101ad57805191809380549160019083821c928285169485156104ce575b60209586861081146104bb57858952908115610497575060011461043f575b61043b8787610431828c0383610dcc565b5191829182610cb7565b0390f35b81529295507f8a35acfbc15ff81a39ae7d344fd709f28e8600b4aa8c65c6b64bfe7fe36bd19b5b828410610484575050508261043b9461043192820101945f80610420565b8054868501880152928601928101610466565b60ff19168887015250505050151560051b83010192506104318261043b5f80610420565b634e487b7160e01b845260228352602484fd5b93607f1693610401565b3461050b578160031936011261050b576020925035906102bc6104f9610d3e565b926105038161102c565b809433611086565b8280fd5b9250346101ad5760603660031901126101ad5782359061052d610d3e565b815163586224ff60e11b8152909290604435906020906001600160a01b03907f000000000000000000000000000000000000000000000000000000000000000082169083818b81855afa90811561071b579084918a916106e8575b5060248b89519485938492636dd5b69d60e01b84528301525afa80156106de57829089906106a9575b6105be92501633146114f4565b6005549784891061066857506105f7847fb928ad10a81de3ce27402bf33dc2f59c0c303aff4d83d63cc0df3f5bfb682542979899611446565b6005558281881697308914158061065f575b80610656575b610623575b5050508351928352820152a280f35b61064e927f0000000000000000000000000000000000000000000000000000000000000000166112c1565b5f8281610614565b5081151561060f565b50881515610609565b606490838088519262461bcd60e51b845283015260248201527f4c69717569646974795661756c743a206c6f636b656420756e646572666c6f776044820152fd5b50508281813d83116106d7575b6106c08183610dcc565b810103126106d357816105be91516105b1565b8780fd5b503d6106b6565b86513d8a823e3d90fd5b82819392503d8311610714575b6106ff8183610dcc565b81010312610710578390515f610588565b8880fd5b503d6106f5565b87513d8b823e3d90fd5b50346101ad5760203660031901126101ad576020906101ea6101d0610d28565b3461050b578160031936011261050b576020925035906102bc610766610d3e565b61076f84610fff565b93849133611086565b610cfe565b50346101ad57816003193601126101ad57517f00000000000000000000000000000000000000000000000000000000000000006001600160a01b03168152602090f35b82346102f757806003193601126102f757600660ff7f000000000000000000000000000000000000000000000000000000000000000016019160ff831161080e5760208360ff865191168152f35b634e487b7160e01b825260119052602490fd5b8290346101ad576020908160031936011261050b57835163586224ff60e11b81528135916001600160a01b037f000000000000000000000000000000000000000000000000000000000000000081169285818481875afa908115610a5f579086918891610a2c575b506024895180968193636dd5b69d60e01b8352878301525afa928315610a225790859187946109e9575b506108c3816024951633146114f4565b87516370a0823160e01b8152308482015293849182907f0000000000000000000000000000000000000000000000000000000000000000165afa9182156109df5785926109ac575b506005549161091a8484610edd565b1161095857509361094d827f0b177c6d9c2aafdc1522f87e503e6d37d8a4692c1cf8c2530c187b0033bcfc949596610edd565b60055551908152a180f35b855162461bcd60e51b8152908101849052602860248201527f4c69717569646974795661756c743a20696e73756666696369656e7420667265604482015267652061737365747360c01b6064820152608490fd5b9091508381813d83116109d8575b6109c48183610dcc565b810103126109d45751908661090b565b8480fd5b503d6109ba565b86513d87823e3d90fd5b828193929495503d8311610a1b575b610a028183610dcc565b81010312610a175751919084906108c36108b3565b8580fd5b503d6109f8565b87513d88823e3d90fd5b82819392503d8311610a58575b610a438183610dcc565b81010312610a545785905189610889565b8680fd5b503d610a39565b88513d89823e3d90fd5b50346101ad57816003193601126101ad576020906005549051908152f35b50346101ad5760603660031901126101ad576020906103ce610aa7610d28565b610aaf610d3e565b60443591610abe833383610efe565b610e02565b50346101ad57816003193601126101ad576020906002549051908152f35b91346102f75760203660031901126102f757506101ea60209235610fcf565b3461050b578160031936011261050b57610b18610d28565b602435903315610b91576001600160a01b0316918215610b7a57508083602095338152600187528181208582528752205582519081527f8c5be1e5ebec7d5bd14f71427d1e84f3dd0314c0f7b2291e5b200ac8c7c3b925843392a35160018152f35b8351634a1406b160e11b8152908101859052602490fd5b835163e602df0560e01b8152808401869052602490fd5b903461050b578260031936011261050b57805191836003549060019082821c928281168015610c91575b6020958686108214610c7e5750848852908115610c5c5750600114610c03575b61043b8686610431828b0383610dcc565b929550600383527fc2575a0e9e593c00f959f8c92f12db2869c3395a3b0502d05e2516446f71f85b5b828410610c49575050508261043b94610431928201019486610bf2565b8054868501880152928601928101610c2c565b60ff191687860152505050151560051b83010192506104318261043b86610bf2565b634e487b7160e01b845260229052602483fd5b93607f1693610bd2565b50346101ad57816003193601126101ad576020906101ea611453565b602080825282518183018190529093925f5b828110610cea57505060409293505f838284010152601f8019910116010190565b818101860151848201604001528501610cc9565b34610d24576020366003190112610d24576020610d1c600435611059565b604051908152f35b5f80fd5b600435906001600160a01b0382168203610d2457565b602435906001600160a01b0382168203610d2457565b34610d24576020366003190112610d2457610d6d610d28565b5060206040515f198152f35b6060906003190112610d2457600435906001600160a01b03906024358281168103610d2457916044359081168103610d245790565b34610d24576020366003190112610d24576020610d1c600435610fff565b90601f8019910116810190811067ffffffffffffffff821117610dee57604052565b634e487b7160e01b5f52604160045260245ffd5b916001600160a01b03808416928315610ec55716928315610ead575f9083825281602052604082205490838210610e7b575091604082827fddf252ad1be2c89b69c2b068fc378daa952ba7f163c4a11628f55a4df523b3ef958760209652828652038282205586815220818154019055604051908152a3565b60405163391434e360e21b81526001600160a01b03919091166004820152602481019190915260448101839052606490fd5b60405163ec442f0560e01b81525f6004820152602490fd5b604051634b637e8f60e11b81525f6004820152602490fd5b91908201809211610eea57565b634e487b7160e01b5f52601160045260245ffd5b9160018060a01b03809316915f9383855260016020526040938486209183169182875260205284862054925f198410610f3b575b50505050505050565b848410610f9f57508015610f87578115610f6f5785526001602052838520908552602052039120555f808080808080610f32565b8451634a1406b160e11b815260048101879052602490fd5b845163e602df0560e01b815260048101879052602490fd5b8551637dc7a0d960e11b81526001600160a01b039190911660048201526024810184905260448101859052606490fd5b600254620f42408101809111610eea57610fe7611453565b9060018201809211610eea57610ffc92611378565b90565b600254620f42408101809111610eea57611017611453565b9060018201809211610eea57610ffc926113ac565b611034611453565b60018101809111610eea5760025490620f42408201809211610eea57610ffc92611378565b611061611453565b60018101809111610eea5760025490620f42408201809211610eea57610ffc926113ac565b604080516323b872dd60e01b60208201526001600160a01b0392831660248201819052306044830152606480830187905282529491939192919060a081019067ffffffffffffffff821181831017610dee57611106918652837f000000000000000000000000000000000000000000000000000000000000000016611313565b1693841561118957908161113e7fdcbc1c05240f31ff3ad067ef1ee35ce4997762752e3a095284754544f4c709d79493600254610edd565b600255855f525f602052825f20818154019055855f7fddf252ad1be2c89b69c2b068fc378daa952ba7f163c4a11628f55a4df523b3ef60208651858152a382519182526020820152a3565b825163ec442f0560e01b81525f6004820152602490fd5b9194936001600160a01b0380871694938181169390838786036112b0575b50508515610ec5575f92868452836020526040938481205499828b1061128057508188999a7ffbde797d201c681b91056529119e0b02407c7bb96a4a2c75c01fc9667232c8db97989983528260205203858220558160025403600255887fddf252ad1be2c89b69c2b068fc378daa952ba7f163c4a11628f55a4df523b3ef60208751858152a36112718783857f0000000000000000000000000000000000000000000000000000000000000000166112c1565b835196875260208701521693a4565b855163391434e360e21b81526001600160a01b03919091166004820152602481018b905260448101839052606490fd5b6112ba918a610efe565b5f836111be565b60405163a9059cbb60e01b60208201526001600160a01b039092166024830152604480830193909352918152608081019167ffffffffffffffff831182841017610dee5761131192604052611313565b565b905f602091828151910182855af11561136d575f513d61136457506001600160a01b0381163b155b6113425750565b604051635274afe760e01b81526001600160a01b039091166004820152602490fd5b6001141561133b565b6040513d5f823e3d90fd5b916113848183856113ac565b91811561139857610ffc9309151590610edd565b634e487b7160e01b5f52601260045260245ffd5b90915f19838309928083029283808610950394808603951461143857848311156114205790829109815f038216809204600280826003021880830282030280830282030280830282030280830282030280830282030280920290030293600183805f03040190848311900302920304170290565b82634e487b715f52156003026011186020526024601cfd5b505080925015611398570490565b91908203918211610eea57565b6040516370a0823160e01b81523060048201526020816024817f00000000000000000000000000000000000000000000000000000000000000006001600160a01b03165afa90811561136d575f916114c3575b506005545f91818111156114be57610ffc9250611446565b505090565b906020823d82116114ec575b816114dc60209383610dcc565b810103126102f75750515f6114a6565b3d91506114cf565b156114fb57565b60405162461bcd60e51b815260206004820152602860248201527f4c69717569646974795661756c743a2063616c6c6572206973206e6f7420636f604482015267373a3937b63632b960c11b6064820152608490fdfea2646970667358221220af045aeddfde9c7593fd8547233ebbdc1a7a6dc1c74ce331c9452b0ab71d02a864736f6c63430008140033","linkReferences":{}},"methodIdentifiers":{"allowance(address,address)":"dd62ed3e","approve(address,uint256)":"095ea7b3","asset()":"38d52e0f","balanceOf(address)":"70a08231","configManager()":"ca0ab075","convertToAssets(uint256)":"07a2d13a","convertToShares(uint256)":"c6e6f592","decimals()":"313ce567","deposit(uint256,address)":"6e553f65","lockLiquidity(uint256)":"2bfbd9cf","lockedAssets()":"274fc72a","maxDeposit(address)":"402d267d","maxMint(address)":"c63d75b6","maxRedeem(address)":"d905777e","maxWithdraw(address)":"ce96cb77","mint(uint256,address)":"94bf804d","name()":"06fdde03","previewDeposit(uint256)":"ef8b30f7","previewMint(uint256)":"b3d7f6b9","previewRedeem(uint256)":"4cdad506","previewWithdraw(uint256)":"0a28a477","redeem(uint256,address,address)":"ba087652","releaseLiquidity(uint256,address,uint256)":"88914bdc","symbol()":"95d89b41","totalAssets()":"01e1d114","totalSupply()":"18160ddd","transfer(address,uint256)":"a9059cbb","transferFrom(address,address,uint256)":"23b872dd","withdraw(uint256,address,address)":"b460af94"},"id":39}