{"abi":[{"type":"constructor","inputs":[{"name":"_stateView","type":"address","internalType":"address"},{"name":"_poolId","type":"bytes32","internalType":"bytes32"},{"name":"_baseToken","type":"address","internalType":"address"},{"name":"_quoteToken","type":"address","internalType":"address"},{"name":"_baseAmount","type":"uint128","internalType":"uint128"}],"stateMutability":"nonpayable"},{"type":"function","name":"baseAmount","inputs":[],"outputs":[{"name":"","type":"uint128","internalType":"uint128"}],"stateMutability":"view"},{"type":"function","name":"baseToken","inputs":[],"outputs":[{"name":"","type":"address","internalType":"address"}],"stateMutability":"view"},{"type":"function","name":"getPrice","inputs":[],"outputs":[{"name":"","type":"uint256","internalType":"uint256"}],"stateMutability":"view"},{"type":"function","name":"hasEnoughHistory","inputs":[],"outputs":[{"name":"","type":"bool","internalType":"bool"}],"stateMutability":"view"},{"type":"function","name":"poolId","inputs":[],"outputs":[{"name":"","type":"bytes32","internalType":"bytes32"}],"stateMutability":"view"},{"type":"function","name":"quoteToken","inputs":[],"outputs":[{"name":"","type":"address","internalType":"address"}],"stateMutability":"view"},{"type":"function","name":"stateView","inputs":[],"outputs":[{"name":"","type":"address","internalType":"contract IUniswapV4StateView"}],"stateMutability":"view"}],"bytecode":{"object":"0x6101203461022c57601f610ee438819003918201601f1916830191906001600160401b03831184841017610230578160a0928592604095865283398101031261022c5761004b82610244565b916020928382015161005e848401610244565b91608061006d60608601610244565b940151956001600160801b03871680880361022c576001600160a01b039283169283156101e85784156101a4578616156101625715610120575060805260a05260c05260e05261010091825251610c8b9182610259833960805182818161010c0152818161083701526108be015260a05182818160d5015281816108870152610988015260c05182818160820152610162015260e05182818161018401526109bf015251818181610140015261094c0152f35b60649086519062461bcd60e51b825280600483015260248201527f556e697377617056344f7261636c653a207a65726f2062617365416d6f756e746044820152fd5b60648288519062461bcd60e51b825280600483015260248201527f556e697377617056344f7261636c653a207a65726f2071756f7465546f6b656e6044820152fd5b875162461bcd60e51b815260048101849052601c60248201527f556e697377617056344f7261636c653a207a65726f20706f6f6c4964000000006044820152606490fd5b875162461bcd60e51b815260048101849052601f60248201527f556e697377617056344f7261636c653a207a65726f20737461746556696577006044820152606490fd5b5f80fd5b634e487b7160e01b5f52604160045260245ffd5b51906001600160a01b038216820361022c5756fe6080604081815260049182361015610015575f80fd5b5f92833560e01c918263217a4b70146109ab575081633e0dc34e146109705781634864d1401461092c5781634b963e97146108665781634c4a3c251461082257816398d5fdca146100b5575063c55dae631461006f575f80fd5b346100b157816003193601126100b157517f00000000000000000000000000000000000000000000000000000000000000006001600160a01b03168152602090f35b5080fd5b82843461081f578060031936011261081f578151633205590760e21b81527f0000000000000000000000000000000000000000000000000000000000000000848201529260249060806001600160a01b03818785817f000000000000000000000000000000000000000000000000000000000000000085165afa9687156108155785976107e2575b507f0000000000000000000000000000000000000000000000000000000000000000947f0000000000000000000000000000000000000000000000000000000000000000927f00000000000000000000000000000000000000000000000000000000000000009860020b8281125f146107db57600160ff1b81146107c957808303915b620d89e883116107a3578391906001841615610791576001600160881b036ffffcb933bd6fad37aa2d162d1a5940015b16936002811661075e575b88811661072b575b600881166106f8575b601081166106c5575b60208116610692575b8b811661065f575b81811661062c575b61010081166105f9575b61020081166105c6575b6104008116610593575b6108008116610560575b611000811661052d575b61200081166104fa575b61400081166104c7575b6180008116610494575b620100008116610461575b62020000811661042f575b6204000081166103ec575b62080000166103b0575b5013610390575b63ffffffff8160201c9116155f146103875760ff825b168101809111610375578216946001600160801b03948587116103395786800296808804811490151715610328575050602097829150169116105f1461031957610311921690610c11565b905b51908152f35b6103239216610b97565b610311565b634e487b7160e01b83526011905281fd5b50509360209761034a828493610a82565b9550169116101561036657610360921690610b53565b90610313565b6103709216610acb565b610360565b634e487b7160e01b8252601185528582fd5b60ff60016102c6565b801561039e575f19046102b0565b634e487b7160e01b8252601285528582fd5b90926b048a170391f7dc42444e8fa2808202935081159184041417156103da571c9082908b6102a9565b634e487b7160e01b8452601187528784fd5b93909192506d2216e584f5fa1ea926041bedfe989081810291818304149015171561041d57811c928492919061029f565b634e487b7160e01b8552601188528885fd5b93909192506e5d6af8dedb81196699c329225ee6049081810291818304149015171561041d5790849291811c93610294565b93909192506f09aa508b5b7a84e1c677de54f3e99bc99081810291818304149015171561041d5790849291811c93610289565b93909192506f31be135f97d08fd981231505542fcfa69081810291818304149015171561041d5790849291811c9361027e565b93909192506f70d869a156d2a1b890bb3df62baf32f79081810291818304149015171561041d5790849291811c93610274565b93909192506fa9f746462d870fdf8a65dc1f90e061e59081810291818304149015171561041d5790849291811c9361026a565b93909192506fd097f3bdfd2022b8845ad8f792aa58259081810291818304149015171561041d5790849291811c93610260565b93909192506fe7159475a2c29b7443b29c7fa6e889d99081810291818304149015171561041d5790849291811c93610256565b93909192506ff3392b0822b70005940c7a398e4b70f39081810291818304149015171561041d5790849291811c9361024c565b93909192506ff987a7253ac413176f2b074cf7815e549081810291818304149015171561041d5790849291811c93610242565b93909192506ffcbe86c7900a88aedcffc83b479aa3a49081810291818304149015171561041d5790849291811c93610238565b93909192506ffe5dee046a99a2a811c461f1969c30539081810291818304149015171561041d5790849291811c9361022e565b93909192506fff2ea16466c96a3843ec78b326b528619081810291818304149015171561041d5790849291811c93610226565b93909192506fff973b41fa98c081472e6896dfb254c09081810291818304149015171561041d5790849291811c9361021e565b93909192506fffcb9843d60f6159c9db58835c9266449081810291818304149015171561041d5790849291811c93610215565b93909192506fffe5caca7e10e4e61c3624eaa0941cd09081810291818304149015171561041d5790849291811c9361020c565b93909192506ffff2e50f5f656932ef12357cf3c7fdcc9081810291818304149015171561041d5790849291811c93610203565b93909192506ffff97272373d413259a46990580e213a9081810291818304149015171561041d5790849291811c936101fb565b6001600160881b03600160801b6101f0565b895162461bcd60e51b81526020818901526001818a0152601560fa1b6044820152606490fd5b634e487b7160e01b8352601186528683fd5b80916101c0565b610803919750823d841161080e575b6107fb81836109ee565b810190610a38565b50509050958761013d565b503d6107f1565b86513d87823e3d90fd5b80fd5b5050346100b157816003193601126100b157517f00000000000000000000000000000000000000000000000000000000000000006001600160a01b03168152602090f35b919050346109285782600319360112610928578051633205590760e21b81527f0000000000000000000000000000000000000000000000000000000000000000928101929092526001600160a01b03906080836024817f000000000000000000000000000000000000000000000000000000000000000086165afa92831561091e57602094936108fb575b5051911615158152f35b61091491935060803d811161080e576107fb81836109ee565b505050915f6108f1565b81513d86823e3d90fd5b8280fd5b5050346100b157816003193601126100b157602090516001600160801b037f0000000000000000000000000000000000000000000000000000000000000000168152f35b5050346100b157816003193601126100b157602090517f00000000000000000000000000000000000000000000000000000000000000008152f35b8490346100b157816003193601126100b1577f00000000000000000000000000000000000000000000000000000000000000006001600160a01b03168152602090f35b90601f8019910116810190811067ffffffffffffffff821117610a1057604052565b634e487b7160e01b5f52604160045260245ffd5b519062ffffff82168203610a3457565b5f80fd5b9190826080910312610a345781516001600160a01b0381168103610a34579160208101518060020b8103610a345791610a7f6060610a7860408501610a24565b9301610a24565b90565b5f198282099082810292838084109303928084039314610ac257680100000000000000009183831115610a34570990828211900360c01b910360401c1790565b50505060401c90565b600160801b915f19828409928260801b92838086109503948086039514610b455784831115610a345782910981600181190116809204600280826003021880830282030280830282030280830282030280830282030280830282030280920290030293600183805f03040190848311900302920304170290565b505080925015610a34570490565b5f198282099082810292838084109303928084039314610b8e57600160801b9183831115610a34570990828211900360801b910360801c1790565b50505060801c90565b600160c01b915f19828409928260c01b92838086109503948086039514610b455784831115610a345782910981600181190116809204600280826003021880830282030280830282030280830282030280830282030280830282030280920290030293600183805f03040190848311900302920304170290565b5f198282099082810292838084109303928084039314610c4c57600160c01b9183831115610a34570990828211900360401b910360c01c1790565b50505060c01c9056fea26469706673582212201a850bc8321965b404bf0e7a20c8c7d0bd3241048173cd6220a7a9f93a4753be64736f6c63430008140033","linkReferences":{}},"methodIdentifiers":{"baseAmount()":"4864d140","baseToken()":"c55dae63","getPrice()":"98d5fdca","hasEnoughHistory()":"4b963e97","poolId()":"3e0dc34e","quoteToken()":"217a4b70","stateView()":"4c4a3c25"},"id":40}